:020000041C00DE
:1040000080B500F0BDF903F02FFB01F0E3FE0A4894
:104010000A4901600A480B4901600B480B490160DD
:104020000B480C4901600C480C4901600CA0BDE82C
:10403000804003F0F3BB00BF944441208145001C45
:10404000244441209D40001C98444120095B001CF1
:10405000804441208575001C2C4441207940001C7F
:10406000506174636820686F6F6B20696E73746150
:104070006C6C2E2E0A00000080B5012803D020B9F8
:104080000549002001E00349012003F0CCFB00209A
:1040900080BD00BF5545001CA143001C032804BF80
:1040A000094870473C2804BF0A487047172804BFD6
:1040B00007487047182804BF044870470B2814BFEE
:1040C00000200548704700BF947D001C487E001CFE
:1040D000C87D001CBC7D001CA07D001C80B502F0CA
:1040E0006BFA03F0A5FB0948016841F48071016097
:1040F000016841F400710160016841F48061016070
:10410000016841F40061016080BD00BF00040950F6
:1041100080B50D4951F8200098B1D0F8FC0080B16D
:10412000C079402807D2782101EA5000094921FAD4
:1041300000F0C0B280BD0548054940F2F52203F009
:104140007CFB002080BD00BF98474120D47D001C2F
:10415000047E001C0000010170B5194A02EB8002C8
:10416000D2F81C5155B3174A95F8333010FB0210A2
:10417000964995F83120B1F84010033222F003023D
:10418000401A95F8301002FB1100D91D21F00301EF
:10419000043890FBF1F0C1B2490051FA80F603F007
:1041A00051FB0446E86A00EB860105F1140003F0B8
:1041B0004EFB2046BDE8704003F04EBB70BD00BF13
:1041C000444B412090F7FFFF80B503F04AFBC0B29B
:1041D00080BD00007FB5E94801680720884702A834
:1041E00003F044FB0C4D00266C46286888B18168BA
:1041F000029A891A00290CDCD0E9001229600660B5
:104200009047204603F032FBDDE90001CDE90201D1
:10421000EBE703F030FB7FBDA04C4120B0B55F4C15
:10422000A07850B12078052809D30025084621F848
:10423000065C03F025FB012003E00020B0BD451C17
:1042400000202570B0BD00BFBCB54FF685400C46C0
:10425000834214D04FF68640834222D04FF68A40E4
:1042600083422DD14FF4885000214FF68A4201231A
:1042700003F00BFB05462078B8B3122060E04FF442
:10428000885000214FF685420123002503F0FDFAF6
:104290002178424A02EB81012268C1F801200570B1
:1042A00050E04FF4885000214FF68642012303F07E
:1042B000ECFA0546E17894F9000002F0BBFB3FE020
:1042C00025490020B0F5847F3ED00D5A08309D422C
:1042D000F8D1084450F804CCBCF1000F34D0184693
:1042E000214602B0BDE8B04060476078022815D092
:1042F00001281AD00028C0D10620144C0DF1070166
:104300008DF807001248224603680120984788B1BB
:10431000104881880068A18020600BE0E0880B498C
:104320008880D4F80200086004E00848017881F031
:1043300055010170054800F1190103F0ABFA0020A6
:104340002870284603F09CFA0020BCBDD85C4120B0
:10435000DC474120B0A20500C4A3050041F20511CD
:10436000054A41F209138842044918BF00229842C5
:1043700018BF1146084670474942001C1D42001CE8
:10438000064800210022042A05D000EB82030132F6
:10439000C3F80110F7E70021017070471840412071
:1043A00080B503F07CFA0120BDE8804003F07CBAC0
:1043B000064A00EB4000D28C02EB4010044A835ABC
:1043C00023F0FF0319448152704700BFAC574120CE
:1043D0001480412004493028087004BF0448704705
:1043E0000249022203F065BA1842412014B50500C3
:1043F000B47D001C80B50A464FF4885000210A2382
:1044000003F043FA0C2101710449C0F80610044975
:10441000016003F035FA002080BD00BF4C0A6F0236
:10442000000C0002F8B510460C4603F047FA1928B4
:1044300016D8012101FA00F01449084210D0271DB6
:1044400003F000FA0546607800F00F00461E398838
:10445000F0B203F038FA284603F0FEF90020F8BD68
:1044600034F8041F14F8030C00F00F00461EF5B2D8
:10447000284603F02DFA0146284603F02EFA0028BC
:10448000ECD003F0DFF905462746E0E72100C00342
:1044900070B540F6FE708D0B14460E0201EA000363
:1044A000B5FA85F200200A2B38BF012052090240DC
:1044B0004FF0FF001CBF301DFB220126B6EB913FE1
:1044C0000AD02DB9802B03D140F2FD32012006E045
:1044D00081B2FF2903D104E040F2FD320220A24262
:1044E00001D2002070BD4FF0FF3151FA80F1022956
:1044F00002D203F0F7F904E0C0B2042805D103F0BA
:10450000F6F940B10D49084470BD0DA00DA140F26F
:10451000091203F092F941F2021000211A2201233C
:10452000012503F0B2F9057003F0AAF92046012134
:1045300003F0E2F9064981F8565070BD0080412031
:10454000415353006863695F70617463682E630050
:104550001859412010B5084C206803F0D2F930B149
:1045600006480168012088470020206010BDBDE892
:10457000104003F0CBB900BF146541203044412006
:10458000C9B2062909D8DFE801F0040608080A08BC
:104590000C0001F0B7BB00F05FBA0020704700F0DC
:1045A00031BFFFF7DBBE0000F8B5074608481546E7
:1045B0000E461C46294602684FF4C46090473846B0
:1045C00031462A46234603F0A6F90020F8BD00BF75
:1045D0005044412010B50C881CB1BDE8104003F0D8
:1045E0009FB9002010BD0000F8B50446EE4845888C
:1045F00025F0FF00B0F5807F29D1EC480068C07F2E
:1046000004282ED103F01EF921780746002003F07C
:104610008CF90646384603F01FF916B39D482278F8
:104620006168304403F086F948F201000022062355
:1046300080EA052081B241F2071003F026F92178C3
:10464000868005808170BDE8F84003F078B9944A0F
:104650002846214640F2813301B0BDE8F04003F026
:1046600073B9F8BD2DE9F04385B004464148005DBB
:10467000163804287AD3A3480D46012150F8246047
:1046800000204F2814D006EBD00200F0060392F869
:104690003C22DA4002F00302032A07D1C20800F0EC
:1046A0000707AB5C01FA07F7BB43AB540130E8E7FF
:1046B000284603F04EF906F50A7829460A224046B4
:1046C00003F04CF9002851D096F83C00022813D191
:1046D00000200DF112010DF11102ADF812008DF85C
:1046E0001100204603F03FF99DF81100BDF81210AB
:1046F000063000FB01F705E0204603F039F900EB36
:104700004000470003F039F9814601A8214603F033
:1047100039F9642F98BF642709EB470001990844D1
:10472000C0F35A07204600F03DFA28B120020821C4
:10473000013003F02CF919E0781C01222B464FF0D0
:10474000010920F001072046394603F025F968B930
:10475000404629460A2203F0EDF896F83630204606
:104760003946012203F01DF986F84C9205B0BDE8E8
:10477000F08300BFD05C41201CB504466148332261
:1047800050F8210090F8360062F35F008DF80400C5
:10479000C8B201A903F00AF9204603F00CF920463B
:1047A000112103F00DF91CBDB0B5564D140A55F892
:1047B00024401CB1BDE8B04003F007B90020B0BDF3
:1047C000B0B5504D140A55F824401CB1BDE8B040B6
:1047D00003F000B90020B0BD2DE9F04707461046B0
:1047E0001D4614460E4603F069F8052834D130887A
:1047F000284F4FEA142AC55DC15DC11991F8019097
:10480000254951F82A8003F0EAF830886E083246CC
:10481000013080B2C35D802000EB1421192003F029
:10482000E3F80320B0EB550F1DD03C2E20D07F2E97
:1048300021D1B9F1010F16D0B9F1110F1BD198F8A0
:104840004F0228B9834915A040F2373202F0F5FF34
:10485000002088F84F020EE03846314622462B46AB
:1048600003F0C7F807E02046314603F0C7F802E03E
:10487000504603F0C8F801F0D9FA38B1044600797F
:10488000611D00F095F8204603F0C2F80020BDE855
:10489000F08700BF00804120605C412041535300FD
:1048A000F97D001CB0B51749100A144651F8205084
:1048B000104603F003F819280CD8012101FA00F082
:1048C0001149084201D00020B0BD10F0300F01D0D6
:1048D0000220B0BD012085F8440095F83C00022874
:1048E00003D1204603F099F8F2E795F837102046F7
:1048F00003F098F80028EBD095F83710204603F025
:1049000046F8E0E7605C41200100C0032DE9F84370
:10491000074610461C4615460E4602F0CFFFA0F192
:104920001101052918D301280DD002F08BFF804614
:104930000B48143003F07BF88146404602F08CFFB0
:10494000B9F10A0F08D8384631462A46234601B045
:10495000BDE8F04303F070B80020BDE8F88300BF65
:10496000205B412010B50146007800B110BD0E4C0F
:104970001422204602F0DEFF0C49086810B1012223
:1049800080F8222049680029F0D0807F0028EDD1EE
:1049900091F85500E072022814BF4FF01E104FF03E
:1049A0000A10C4F80E0010BDC447412078474120CA
:1049B0007CB50C46054603F044F8F0B106461421D8
:1049C0002078ADF806107F21B1EB500F07BF60785B
:1049D0001E4940081C4900EB400001EB8000406884
:1049E00088B100900DF1060220462146142303F001
:1049F0002DF880B1BDF8061007E028462146BDE835
:104A00007C4001F021BA04201421124A40F29E2376
:104A100002F09AFF7CBDB0880D49BDF8062008441D
:104A2000214602F087FF9DF806003146B071284606
:104A300003F011F89DF8062005F1800117202346A8
:104A400003F00EF87CBD00BFC0C90500E4CC050032
:104A500000804120F97D001CA0F21E610D290BD8B9
:104A60001048DFE801F007151517161915151B1565
:104A70001515151D0D48704740F20161884204BFAD
:104A80000C48704741F20711884204BF0C48704738
:104A9000002070470648704708487047064870472E
:104AA00001487047D947001C0D49001CA548001C4F
:104AB000C147001CA947001CA945001CD545001C86
:104AC0002544001C70B50446EF4850F8245065B1E9
:104AD00016290AD195F8B100032806D195F8B0003F
:104AE000012802D195F8B900B0B31E48427A012AD4
:104AF0000AD1807A884218BF002805D1C94A2046C9
:104B000040F2933302F020FF1DB12846002102F04D
:104B1000ACFF204601F000FD204601F061F902F0F3
:104B200091FE064695F8F50030B1002085F8F500B5
:104B30004FF4004002F09EFF0025032D07D82046C9
:104B400002F09DFF18B102F09FFF0135F5E73046F6
:104B500002F082FE012070BD022085F8B000002026
:104B600070BD00BF1940412000F026B810B5CCB28E
:104B7000022C07D3EA4B114620461A4640F25D53F9
:104B800002F0E2FEE44850F8240008B1002010BD15
:104B9000E34A2046002140F2625302F07AFF0120EE
:104BA00010BD00BFEE4951F8200010B190F8AF00E1
:104BB0007047FF20704700BF70B5014690F8AE0007
:104BC00091F8BF20F2B191F8BD203D4C02EB4002BC
:104BD000D3B25B0053FA82F3544A528D02EB830541
:104BE0002544EE881EBBAD880DB391F8BB10F1B122
:104BF00099002143895A01F078011839B1FA81F1FD
:104C0000490915E0D1F8FC1089B10B4909688903FD
:104C10004FF001010CD500EB4002EF4B43EA42128A
:104C2000EF4BDB8C1A44928821EAD22100E001216B
:104C3000BDE8704001F084BCD4040950FFF7BCBF4C
:104C40002DE9F04F85B0E44CE44EDFF860899B46D7
:104C50008A4607460025049204F10209032D18D85C
:104C6000384602F00CFFA0B196F82110B8F82800E1
:104C700044EA0112125A520707D1090141EA090216
:104C8000125A02F07802102A07D002F0FDFE013518
:104C9000E4E7002005B0BDE8F08F04F10A0200232C
:104CA00011430E9A085A0021CDF800B0CDE9012138
:104CB000049A514602F0F2FE02F0E6FE0120E9E716
:104CC00002804120B0B51749097851B39F4D9E49E4
:104CD000696032B302F0D3FE18B3C048124990F8AD
:104CE000210041EA0010BE49098D405A00F07801C8
:104CF0006868026883689A429ABF4268013200225B
:104D00004260202902D1C1688A4201D2002401E018
:104D1000012441602878844203D0204601F0DCFB66
:104D20002C70B0BD0240412004804120AC5741208E
:104D30002DE9F0410446FFF73FFF002C42D094F8E4
:104D4000AF0001283ED1E06FD4F8C810814239D0BD
:104D50006168D4F88460B4F89680081A20F070472F
:104D600002F0A1FE054694F8AE0002F0A1FE08B1E3
:104D7000142001E094F8B20050FA85F040F271215D
:104D8000784348431049B0FBF1F0A8EB000001B2B2
:104D9000B1F1FF3F05DC711C00F2712021F070467B
:104DA000F5E7D4F8D000811B301A21F0704120F0D3
:104DB0007040B1F1006F88BF4142042924BFE06F09
:104DC000C4F8C800BDE8F08140420F00644951F8C2
:104DD000200050B190F8F510012906D1002180F88B
:104DE000F5104FF4004002F045BE704710B5CCB24C
:104DF000022C07D3EE4B114620461A4640F24D5383
:104E000002F0A2FD564850F8240008B1002010BD61
:104E1000E74A2046002140F2525302F03AFE0120B8
:104E200010BD00BF047E001C4D4951F8200018B38E
:104E3000C16FD0F8D420531A891A23F0704321F09F
:104E40007041B3F1006F88BF4B4290F8EE20B0F88C
:104E5000DC10002A08BF0122514301EB41018B42C3
:104E60000BDA90F8F510012906D1002180F8F51031
:104E70004FF4004002F0FEBD7047012180F8F510AC
:104E80004FF4004002F019BE98474120F8B51C4687
:104E900015460E46074602F0D5FC314951F8271059
:104EA000A1B191F8B1200C27012A10D191F8AF10CF
:104EB00045EA0603069A234300294FF00C0108BF78
:104EC0004FF0FF311A4308BF0F4600E00C2702F0F5
:104ED000C3FCF8B2F8BD00BF80B501F01DFB002097
:104EE00080BD000080B50C4951F82000D0F8FC00CE
:104EF000C079402805D23C2101EA900009A1085858
:104F000006E00648064940F2A55202F096FC012050
:104F1000BDE8804002F016B898474120D47D001CBF
:104F2000047E001C010000000100000000000000E1
:104F30000000000004486021C160044948608021ED
:104F40008160002141607047E027085010404120F7
:104F5000034951F82000002818BF0120704700BF06
:104F60009847412010B50024032C07D8022002F0F6
:104F700086FD18B102F088FD0134F5E710BD000090
:104F80002DE9F0471348DFF85480DFF820960468D5
:104F900011488246861C94F8390002F070FDB0B1C9
:104FA00098F82100B9F828204AEA001146EA0010D2
:104FB000895A875A8D0702F067FD002DEBD107F063
:104FC0007800082804BF0120BDE8F087E3E700204F
:104FD000BDE8F087085D412002804120D85C412077
:104FE000AC5741202DE9F04F85B00446A04850F859
:104FF0002470002F00F0D78097F85B0028B16B4831
:105000006B4940F2BD4202F018FC07F15C0002F06F
:1050100059FD80462046002102F059FD8446834810
:1050200004944FEA441B634B634D00F1080950F8A8
:105030000B6059F80B4097F8591081F00101B1EB62
:10504000D67F0DD100EB0B019A461223240C51F8A8
:105050000C2F039353464FEA124E4FF0F85208E0DC
:1050600000EB0B0110234FF4F85251F80CEF0393AF
:105070002B4600EB0B0AB8F1000FDAF8040002909F
:105080005BF8090000EA030040EA02004BF809005F
:10509000086800EA0300474B086021D0B8F8040014
:1050A00081070ED0414842494FF49E62CDE9008C01
:1050B000F04602F0C2FB0098DDF804C0C6463D4B46
:1050C00080882946B6F1FF3F4FEA9000C8BF1946D5
:1050D00059F80B20C8BF00041140084349F80B00E1
:1050E000DDF81080A400BCF1000F1FD0BCF8040054
:1050F00081070DD02D482E4940F2FC42A946E346D7
:10510000754602F09AFBBBF80400AE46294B4D46AB
:10511000B6F1FF3FC8BF1D46DAF80C104FEA900009
:10512000C8BF000429400843CAF80C00A5B24FEAE2
:105130008E06ADB1B5F5F84F12D097F85600FF22A4
:1051400001230002013081B24FF4C66002F09DFBE2
:1051500080F8008002F0F3FB4046294602F0B3FBE2
:10516000300420D0DDE90210FF22062321FA00F0EE
:1051700000F0030497F856000002013081B240F2BB
:105180002F6002F082FB97F8702097F8401006809D
:1051900080F80480C47001325143817005B0BDE8CD
:1051A000F04F02F0CCBB05B0BDE8F08FD47D001C01
:1051B000047E001CFFFF00C000C0FFFF2C4951F817
:1051C000200010B1002102F050BC704780B5284982
:1051D000096859B140B190F84E1090F85600023964
:1051E00018BF012101F0ACF9012080BD002080BD75
:1051F000C1F307111E4840F2FD1250F82100490189
:1052000090F8520002EB4000084AC0F347001F2804
:1052100028BF1F205358C3F30423834205D08B5863
:1052200023F4F85343EA00208850704710060950D1
:1052300070B514460E4602F005FB05460C4850F8C2
:10524000260028B1002102F010FC304602F044FC98
:10525000084809490068884204D16078022804BFE0
:1052600003206070284602F0F7FA002070BD00BFEE
:1052700090474120A0FF4120A5A55A5A70B5144679
:105280000D46064600F0E4FA08B12A2004E0304654
:105290002946224602F025FCC0B270BD2DE9F84334
:1052A000814688880D4640F67A432026811F994220
:1052B00079D8E9888B087C2B75D82B8940F6764401
:1052C000A3F10A07A7426ED800EB80000131400825
:1052D000484303EB83014900814201D2202662E06A
:1052E0003E4850F82900B0F89600C0075AD16889A6
:1052F00047F6FF71101A80B2884201D2282652E088
:105300004846002102F0F2FB052805D1484601215C
:1053100002F0ECFB052849D14846012102F0E6FBEA
:1053200008B1092718E04FF48670042104223023C5
:1053300002F0ABFA2A4A0521064602F0DCFB002007
:1053400001213246A6F82D0030614FF6FF70F08241
:10535000484602F0D5FB0727484601214FF00108D7
:1053600002F0C4FB05281DD14846012102F0CDFB07
:1053700049463A46064602F0CDFBA88886F82C80BE
:10538000394600223085D5F80600F0606889B0847F
:1053900068887084687886F826004846002602F0FF
:1053A000BEFB00E024263046BDE8F88348460021D5
:1053B000002602F0AAFBA98800220185D5F8061074
:1053C000C1606989818469884184697880F8261080
:1053D0004846032102F0A8FBE5E700BF105D41202D
:1053E0005108030070B514460D46064600F030FA29
:1053F00008B12A2004E030462946224602F099FBF3
:10540000C0B270BD0349B0F5057F18BF0021084642
:10541000704700BF4D59001C10B504461148417B30
:1054200001290CD1807B904218BF002807D10E4B78
:10543000114620461A4640F2D73302F085FAFA4860
:1054400050F8240060B190F8C510012908D100215E
:1054500080F8C5104FF48030BDE8104002F00ABB60
:1054600010BD00BF194041203B7E001CF8B50F461F
:10547000054602F0E7F90446F44850F82560D6B135
:10548000B6F8920020F0100067F30410A6F892001E
:10549000284602F053FB67B1284602F054FB96F809
:1054A000A60030B1284631460022002700F0D6FA87
:1054B00002E0002700E00C27204602F0CDF9384634
:1054C000F8BD00BF2DE9F041304D0446884695F8FF
:1054D0002200FF280AD002F03BFB95F8221002229E
:1054E000C90002FA01F1084302F037FB95F82300E6
:1054F000FF280AD002F02CFB95F823100222C900E5
:1055000002FA01F1084302F028FB02F09BF906467B
:10551000D54850F82470A7B107F12C00414602F09D
:1055200096F9B7F8920040F00800A7F892002046DC
:1055300002F009FB20463946012200F08FFA0024D0
:1055400000E00C24304602F087F995F82200FF288D
:105550000AD002F0FDFA95F822100222C90002FAE0
:1055600001F1884302F0F9FA95F82300FF280AD0E8
:1055700002F0EEFA95F823100222C90002FA01F1B6
:10558000884302F0EAFA2046BDE8F08174464120E3
:1055900058B1064990F8A2009422498810FB0210E5
:1055A0000349425A42F0200242527047AC57412010
:1055B000028041202DE9F047DFF8489559F8205046
:1055C000B5B10F46824628460121164602F04DFA33
:1055D00095F8A300022813D1B5F892003D220121CD
:1055E000000658BF16225046BDE8F04702F0BABA8E
:1055F000D448D54940F2CB32BDE8F04702F01DB99E
:1056000002F0B5FA8046B5F88A00696F0130A5F856
:105610008A00A86D084420F07040A865504602F04A
:10562000ABFA8249C0B276B101EB4000A97E407866
:105630004418FEF7C9FD00F003002044FF2828BFEE
:10564000FF20A87641E011F8102095F8C330FF261E
:105650001A44FF2A28BF3246AA762A6EBB1AD21BEA
:1056600023F0704422F07042B4F1006F88BF5442BE
:10567000012C10DB01EB40004778FEF7A5FD00F0A0
:105680000300A10A38444843A97E51FA80F0FF285C
:1056900038BF0646AE76B5F88210686F06314843CB
:1056A000844207DD012085F8C5004FF4803002F008
:1056B00004FA0AE095F8C500012806D1002085F813
:1056C000C5004FF4803002F0D5F995F8BB0068B101
:1056D00059F82A6096F8A700311891F9AE007F2892
:1056E0001CBF91F9B61011F1010218D195F8BA005A
:1056F00020B1FF281CBF013885F8BA00B5F8920028
:10570000C00501D4012204E0286EE96E421A18BFD8
:10571000012250464146BDE8F04702F032BAB0EBF4
:105720000109D8BF4FF0000996F8C00096F8C17083
:1057300090B101281AD0022825D0FF2847D196F829
:10574000BC205FFA89F191423FD896F8BE2000272D
:10575000914288BF01273DE096F8BE2096F8BF3001
:105760005FFA89F11A448A4216D330E096F8BE20D7
:1057700096F8BF305FFA89F1D21A8A4216DD002FFF
:105780004AD001214BE096F8BC2096F8BD305FFA74
:1057900089F1D21A8A421ADD012F06BFB6F89E108F
:1057A00001310121A6F89E10012713E096F8BC20D4
:1057B00096F8BD301A448A4209D2022F06BFB6F8C5
:1057C0009E1001310121A6F89E10022702E000215F
:1057D000A6F89E10B6F89C10B6F89E2086F8C17008
:1057E0008A4205D8FF287FF481AFFF2F3FF47EAFB8
:1057F0004FEA0A20FF220223011D40F2162002F088
:1058000044F8477080F8009002F099F8002086F87C
:10581000C070A6F89E0069E7B6F89E100131A6F8A0
:105820009E100027D6E700BF6C5D4120DCCE05004E
:10583000B44951F8200030B190F8A3000138B0FA13
:1058400080F0400970470020704700BF6C5D412028
:10585000AC4951F8200028B190F85600002818BF34
:1058600001207047002070476C5D41202DE9F04118
:10587000334D0446884695F82200FF280AD002F0EE
:1058800067F995F822100122C90002FA01F10843D4
:1058900002F063F995F82300FF280AD002F058F9C6
:1058A00095F823100122C90002FA01F1084302F021
:1058B00054F901F0C7FF0646924850F82470CFB162
:1058C000B86A28B1C148C24940F2792201F0B5FF57
:1058D000B7F89200C7F8288040F00800A7F89200B7
:1058E000204602F030F920463946012200F0B6F891
:1058F000002400E00C24304601F0AEFF95F82200B1
:10590000FF280AD002F024F995F822100122C900DC
:1059100002FA01F1884302F020F995F82300FF28EC
:105920000AD002F015F995F823100122C90002FAF5
:1059300001F1884302F011F92046BDE8F08100BF73
:1059400074464120D47D001C3B7E001C2DE9F041B3
:10595000140A0746984615460E46204602F016F9E8
:105960000D4951F8241059B10089328882420AD376
:10597000092C05D891F8980000F00300032802D103
:105980000020BDE8F081384631462A464346BDE84E
:10599000F04102F000B900BF105D41202DE9F04751
:1059A0001E4614460F46814601F04CFFDFF854A115
:1059B00080465AF829504DB195F8560040B1844AB6
:1059C000002140F2123301F0BFFF20E00C2633E04B
:1059D0000A98DDE90821A5F854000120A5F84E2019
:1059E000B20085F85600A000A5F84C00B800A5F854
:1059F00080004801C5E91120686FB0EB860F06D919
:105A000095F8A810022902D3484602F0C9F895F883
:105A1000A300002685F8506070B902F0A8F804468B
:105A20005AF829000021002602F01FF895F8A2007C
:105A30002146012202F0A5F8404601F00DFF304654
:105A4000BDE8F0872F4951F8200028B190F8A30055
:105A5000023818BF01207047002070472DE9F04739
:105A6000054691F8A300002849D1B1F892000E46EE
:105A7000C00744D096F8C200002840D02148144600
:105A800050F8258002F073F896F856108146B06DF4
:105A9000012902D196F8501089BBA0EB090121F031
:105AA0007042716F8A422AD9B2FBF1F7B6F88A20A8
:105AB0004FF6FF7CBBB29A4208BF67441FFA87FAD1
:105AC000924509D34148424940F25A2201F0B5FEBD
:105AD000B6F88A20B06D716F01FB1A00D21B00214D
:105AE000A6F88A2020F07040B065404601F0BDFF66
:105AF000284649462246BDE8F04702F042B8BDE8D4
:105B0000F08700BF6C5D4120182804BF064870472D
:105B1000012804BF0348704708B9044870470020B3
:105B2000704700BF7D52001CE553001C9D52001CB5
:105B3000184951F8200038B1018D29B1B0F8520050
:105B4000814218BF02F031B8704700BF2DE9F04123
:105B500015460E46074601F075FEDFF8388004460C
:105B600058F8271089B191F8570040B1088D18B145
:105B700002F01BF858F827100D854E8505E03846D1
:105B800031462A46012302F015F82046BDE8F041CF
:105B900001F062BE005E4120B0B50B4CA17F81B127
:105BA00091FAA1F2B2FA82F530B90848084940F2F8
:105BB000362201F042FEA17F0120A84021EA000028
:105BC000A0770020B0BD00BF20474120D47D001C3D
:105BD0003B7E001C10B5464900200022022A08BF67
:105BE00010BD02EBC2030B4493F83A400CB918877E
:105BF00058630132F2E700BFB0B51D460C46FFF70F
:105C0000E9FF41F20100854206D1204641F201013F
:105C1000BDE8B040FEF7EEBB0A4900205D280ED07B
:105C200031F83020AA4201D00130F7E701EBC00083
:105C3000426822B120462946BDE8B0401047002006
:105C4000B0BD00BF84C50500B0B5294C94F84C50D8
:105C500035B1E47C022C03D14C7B0CB18C7B1CB1A4
:105C6000BDE8B04001F0ABBF0020B0BD09B10223D8
:105C70000B7002280FD81D4B022853F8301003EB8D
:105C8000C0035B681160536005D0012804D000BBDD
:105C90001848407910B37047154890F82A3003F03F
:105CA00001031943117090F82C3003F0010341EA0D
:105CB0004301117090F82D3003F0010341EA830194
:105CC000117090F82B0000F0010041EAC000107044
:105CD000704709A20221812301F036BE080E40EA76
:105CE000032000F0FB00D070704700BF6CC80500B7
:105CF00060634120194041206C6D5F70617463687E
:105D00002E63000041F20511884204BF0448704729
:105D100040F2015188420CBF02480020704700BF8A
:105D2000F95B001C495C001C70B5054640780C46C8
:105D3000182812D1AD49200A51F8206096F8360093
:105D400001280AD1204601F0B9FD322805D096F885
:105D50003C0002281CBF002070BD28462146BDE83B
:105D6000704001F031BF00BFF8B506469F480D0AEC
:105D70000C4650F82570084601F0A0FD1F280DD0F4
:105D800025280ED197F8360058B997F839302846AB
:105D90000B21232201F01DFF0020F8BD002087F811
:105DA0007A0130462146BDE8F84001F017BF00BF38
:105DB000B0B501F047FD374D0446284601F082FE9C
:105DC00010B101F025FEF8E72046BDE8B04001F033
:105DD00043BD00BF2F480021C0E90011704700BF3C
:105DE000F0B585B06E460546304601F0FCFE01F088
:105DF00029FD284F0446384601F064FE58B101469B
:105E00000079A84203D1084601F002FEF3E73046CC
:105E100001F01DFDEFE7009818B11E48694601F03A
:105E2000E7FE204601F018FD05B0F0BDB0B501F069
:105E300009FD0446174801F045FE0546204601F0DD
:105E40000BFD2846B0BD00BFF8B5054611480C460D
:105E500001F0EDFD042816D81C20002101F04CFDB6
:105E6000064601F0EFFC07460A48314601F0EFFC18
:105E7000384601F0F1FC3571701D21461422BDE851
:105E8000F84001F057BD280222210130BDE8F8405A
:105E900001F0B3BE04424120F8B5054653480C0A50
:105EA00050F82470084601F009FD192807D801218F
:105EB00001FA00F01A49084201D00020F8BD287804
:105EC00000F0010397F8360087F8393001281CD11B
:105ED00005F10906304601F095FE142817D3287AFB
:105EE000022814D207F50A7031460A2201F08FFE0B
:105EF00069682A7A2046334601F08EFE287A002807
:105F000018BF012087F84C02D7E7242202E097F857
:105F100039301E2220463C2101F05BFECDE700BF58
:105F20000100C003F8B5064630480D0A0C4650F88B
:105F30002570084601F0C2FCA0F11601042915D312
:105F4000A0B12E280DD11A48342115FB0100407A4A
:105F500028B197F8360010B93078C0071FD1F08803
:105F600050B1307800F0010087F839003046214602
:105F7000BDE8F84001F055BE1D482146026840F2D8
:105F80000460904730781721122200F00103284660
:105F900001F01FFE2046202101F048FE05E02846C2
:105FA00017212322012301F014FE0020F8BD00BFB9
:105FB000685C412070B505460C46080A0B4951F84B
:105FC0002060204601F07AFC322809D196F836008C
:105FD000012805D106482146026840F20460904736
:105FE00028462146BDE8704001F025BE605C412096
:105FF0005044412010B51446212807D070B9B1F59E
:10600000800F0BD198B2FFF7C7FD08E0202905D11A
:10601000184601F0EFF90121002001E000200021E5
:10602000217010BDB0B5C51F144600220E2D10D82A
:10603000DFE805F008767676767640767676761D19
:10604000242B4600B1F5002F5CD11846FFF7A0FACB
:1060500065E020283ED0232842D0292860D102299B
:1060600045D008294ED11846FEF7BEFA4AE0B1F1F4
:10607000807F47D11846FEF777FD50E0B1F5804F9D
:1060800040D11846FEF7DAFD49E0B1F1004F32D0B9
:10609000B1F1005F33D0B1F5807F35D0B1F5805FCD
:1060A00036D0B1F5002F37D080292BD11846FEF716
:1060B0003FFE34E0102925D1D8B2FFF739FD2EE09C
:1060C00002291FD11846FFF781F80138B0FA80F095
:1060D000420925E0082915D1184601F051F811E0D0
:1060E000B1F5007F0ED1D8B201F094F90AE018465C
:1060F000FEF738FC06E0D8B2FFF760F80FE0D8B240
:10610000FEF770FF00220BE01846FEF75FFE06E088
:106110001846FEF789FE02E0D8B2FEF7E3FE012240
:106120002270B0BDB0B5054614460A460499002059
:10613000072D20700FD0132D27D1B2F1006F17D08B
:10614000B2F1805F19D1D8B201F07AFD98B1002088
:1061500020700120B0BDB2F5805F10D0B2F5804F45
:1061600014D0B2F1006F08D1D8B2FFF77FFBB0BDF9
:10617000D8B201F06AFD012020700020B0BDD8B275
:10618000002918BF0121FFF771F9B0BDD8B2FFF7A0
:1061900099F9B0BD10B51446132810D012280CD1AF
:1061A000029AB1F5800F10D0B1F5805F05D1D1B260
:1061B000184601F04FFD013803E0002009E0A1F589
:1061C0008000B0FA80F0400903E0D8B2D1B2FEF707
:1061D00079FC207010BD10B51446002214282270DE
:1061E00008BFB1F5803F06D1DDE90212D8B2C9B2CD
:1061F000FEF772FE01220020227010BD70B5073834
:1062000014460A4600210E28217049D8DDE90415FC
:10621000DFE800F00813464646461A46464646332F
:106220003C242C00B2F5800F3BD0402A38D1D8B2A4
:10623000C9B2EAB2FFF7F0F83DE0B2F5806F2FD1B6
:10624000D8B2FFF7FFFB2AE0B2F5807F28D1D8B2A1
:10625000C9B2AAB2BDE87040FFF778BCB2F5806F52
:106260001ED1EAB21846FEF7C1FD0DE0042A17D18F
:10627000EAB21846FEF7BCFF1DE0B2F1804F0FD125
:10628000EAB21846FEF772FC50B914E0B2F5800F7E
:106290000DD0B2F5803F03D1C8B2FEF759FE50B918
:1062A00070BDD8B2EAB2BDE87040FFF783B9EAB278
:1062B0001846FEF707FD0120207070BDB0B51446EA
:1062C00000221528227008BFB1F5007F01D0002000
:1062D000B0BD04ADD8B226CD2B46C9B2FEF7A8FF9B
:1062E00001212170B0BDB0B51446002226282270CD
:1062F00008BF402900D0B0BD04ADD8B226CD2B4692
:10630000D2B2C9B200F0E0FE01202070B0BDB0B53D
:1063100014460246002000251B2A04BF0129FEF76F
:106320002FFE2570B0BD000010B5A0F1210314466A
:106330000022072B0AD8DFE803F004565656101641
:106340001F4708294AD100F04FFF47E017284AD1DC
:10635000012943D1FEF706FE44E0B1F5805F3DD14F
:10636000FFF726FD3EE0B1F5800F35D0B1F5001FF7
:1063700034D100F0DFFE31E0B1F5807F2ED11B4833
:106380000168D0F88802084328D01948016841F014
:10639000040101600168002903D40168B1F1FF3FE5
:1063A000FBDC01F05CFC022001F05EFC1149B0FB5B
:1063B000F1F011490A686FF3184242EA00400122E5
:1063C00040F4000008600EE0B1F5802F08D00829E5
:1063D00004D1FDF783FE01E000F0BEFE002202E0E2
:1063E00001F0AEF80122227010BD00BFD867412035
:1063F0000C00045000127A001400005070B586B0F2
:10640000144602460020142A20701DD0132A37D0CB
:10641000072A47D1B1F1804F43D10AA8BDF83430E3
:10642000BDF83020BDF83840BDF83C50BDF84060A4
:1064300000F11C01059110F8041F9DF828008DE85B
:106440007000FFF7ABFA2DE0B1F5005F29D10AA883
:10645000BDF83430BDF83020BDF838509DF83C60B0
:1064600000F11801049130F8041F9DF82800CDE9CF
:106470000056FEF70BFDFF281CBF0121217011E023
:10648000B1F5004F0DD10AA80CAC00F11401039135
:1064900050F8041F9DF828001CCC0094FEF7D0FB98
:1064A00000E0002006B070BD1CB500232528137045
:1064B00008BF082900D01CBD04A89DF8204000F1A9
:1064C0001401019150F8041FDDE90623049800949B
:1064D00000F080FD1CBD0000074900280A6802F09A
:1064E00000420A60054A04BF44F22012C0F2005282
:1064F0000868104308607047704008506008000149
:10650000A24A0021072904D05356834201DA0131FF
:10651000F8E7B8484170704710B50848B54C0168B5
:1065200021F01001016094F90300FFF7E9FF6078A2
:1065300096490856BDE8104000F0C2BAE040085045
:10654000F8B5F44F0446F44A0D467878B978165CED
:1065500039B1284600F0F6FCB878B0FA80F0470967
:1065600000E0012770B200F023F8021F87F001015C
:10657000002D18BF0125B2FA82F2520911402940BC
:106580000844C1B22046BDE8F840FDF711BF00BF86
:1065900070470000044805A10068C0F341000328CB
:1065A00008BF0220085C7047502808500100020014
:1065B000002100F0ABBC000010B500F0BFF9D548D9
:1065C000417A00296BD16F496F4A40F2FF33C1F81D
:1065D00000210A6842F010020A600A6822F0807204
:1065E0000A600A6822F080020A60D1F8CC2042F0EA
:1065F0008062C1F8CC20D1F8D4206FF39322C1F887
:10660000D420D1F8D42042F48032C1F8D420D1F87B
:10661000D4209A43C1F8D420D1F8D42042F4807217
:10662000C1F8D420D1F8D8206FF39322C1F8D82034
:10663000D1F8D82042F48032C1F8D820D1F8D8203F
:106640006FF30902C1F8D820D1F8D82042F4A07223
:10665000C1F8D820A622C1F8DC20D1F8DC2022F431
:106660007062C1F8DC20D1F8DC2042F4C062C1F8CD
:10667000DC20D1F8DC2022F47042C1F8DC20D1F813
:10668000DC2042F42042C1F8DC200A6C42F0800297
:106690000A64D1F8E02022F00402C1F8E02040783A
:1066A0009D49085600F00CFA394C3A483B49404A9B
:1066B00020603948C0F8EC133949C0F8F41339495F
:1066C000C0F8F8133849C0F8FC1340F25571C0F80F
:1066D000001436490A60374A4A60374A8A60374AA6
:1066E000CA600D22D4F8901362F305013722C4F872
:1066F0009013D0F8A81062F305015022C0F8A8103A
:10670000D0F8A81041F48051C0F8A810D0F8A81013
:1067100041F40051C0F8A810016862F3174101600C
:10672000016862F3070140220160D4F8081462F3A3
:106730000D010B22C4F80814416862F30E210322F4
:106740004160416862F306014160606820F40050D6
:1067500060606068800405D519481A4940F24652C5
:1067600001F06BF8606840F400506060606880047D
:1067700048BF10BD1248134940F24B52BDE81040CB
:1067800001F05BB80040085055555568307D001C3D
:1067900070000950001020208C0409504000C008EF
:1067A00040053C0050035000550750009008095028
:1067B00007090900030507000309A81C030028179F
:1067C000D47D001CD87D001C10B50446072001F0C4
:1067D00050FAB54AC10F5172C0F30660907008B10B
:1067E000FEF7A8FBFFF7E8FE2046BDE8104000F0EA
:1067F00003B800BF0040412070B596B004460120A8
:106800008DF80700072001F034FA05463C483D4961
:10681000C4E90810112084F82C003B48606145F35E
:10682000074000F04DF939499F4E84F82D00216052
:1068300037493071280C0206A1620021B2F1206FA5
:1068400031704FEA152104DD984A136843F00803BC
:106850001360F07040B2F1723572FFF751FE2E49AD
:106860006AB20020072804D00B56934201DA0130A7
:10687000F8E7307329482A492C4A2D4BC4E9061001
:1068800029492848C4E90113C4E90320002102A8CA
:10689000282903D04A0042540131F9E728216FF03A
:1068A0004E02502904D002EB410343540131F8E772
:1068B000204802A9502201F0E1F91F4E04F12E05F3
:1068C0000DF107013A202A463368984708B1D820CD
:1068D000287004F12F0533680DF107013B202A468B
:1068E000984708B1C4202870303433680DF107018F
:1068F0003C202246984708B1BA20207016B070BDDF
:10690000BB6A001CB76A001CE16D001CB56A001C64
:10691000B96C001C00404120307D001CBD6A001C89
:10692000756D001CE177001C9165001CA16E001CB8
:10693000456E001C00814120DC474120294801218F
:10694000CB4B0160C5490A6822F4F0620A600A680C
:1069500042F4A0620A604A681A40234B4A604A68BF
:106960001A43224B4A604A6B1A40214B4A634A6BD6
:106970001A434A63B84A527A1AB94A6B42F0206203
:106980004A631C490A1D42651B4A8265C1651B4951
:106990001C4A01661A4941661B318266C1661A4962
:1069A00001671A4941671A4981671A49C1671A493B
:1069B000C0F880101949C0F884101949C0F888102F
:1069C0001849C0F88C101849C0F890101749C0F841
:1069D00094101749C0F898104FF48E61C0F89C10BD
:1069E000704700BF2C410850A0823A00FCFFF3F032
:1069F00001000800FCEFFF00FDCFFF0005000100D3
:106A00001DB0020037C003001580FF00D5FFFA005B
:106A10008A9FF600518FF40050DFF600A1CFFE00F0
:106A20004E300C0048511D0065122F006FB33D0021
:106A30002CF44500B0B5884D0229A97168710BD1BD
:106A400004461A480B2C09DB016841F0080101607B
:106A50002046FFF7ADFD12E0022020E095F9081076
:106A60000B290FDB01212970016821F00801016069
:106A70000A2000F02DF92046012100F07BF9287151
:106A800000200CE0026822F008020260002028705A
:106A9000074890F82D002871081B18BF0120E979DC
:106AA0000143E971B0BD00BF00404120E040085003
:106AB000E8474120704700207047704740B2704758
:106AC0002DE9F041634E054656F8080C0B2D10DBFE
:106AD00040F0100046F8080C30686FF39A403060C0
:106AE000306840F02E7030602846FFF761FD804628
:106AF0002AE020F01000584F002D46F8080C4FF007
:106B00000000C8BF012039788000012908BF0A2091
:106B1000042DC8BF0A2000F0DBF82846012100F050
:106B200029F98046F06A20F0FC00F062F06A40EA41
:106B30008800F062B87838B930686FF39A403060F6
:106B4000306840F0217030602846FFF731FD424B3D
:106B5000424945A45A7A4F6B27F07C07002A4F63BD
:106B60003FA708BF3C46205C4C6B44EA800048636A
:106B70004AB1486B0D2D20F07060486303D0486B1C
:106B800040F0206048639878002860D00D2D5CD1DB
:106B9000987A002859D00020354B7064086820F49A
:106BA000F0600860086840F480600860486800EAA7
:106BB0000300304B4860486840EA030048603AB937
:106BC000486B2D4A10404863486B40F07E00486394
:106BD0004FF480502E49C6F8980042F20100C6F8E2
:106BE0009C002648C6F8A0002548C6F8A400254801
:106BF000C6F8A8002448C6F8AC002448C6F8B0007F
:106C00001930C6F8B410C6F8B8002248C6F8BC005F
:106C10002148C6F8C0002148C6F8C4002048C6F87C
:106C2000C8002048C6F8CC001F48C6F8D0001F484E
:106C3000C6F8D4001E48C6F8D8001E48C6F8DC00C6
:106C400040F2C440C6F8E00001E0FFF777FE40469E
:106C5000BDE8F081E8400850004041202428085059
:106C60000004070A121F1F1F030508141B1B1F1F08
:106C70000F7C80FF0001100080FFF3F000D0FF00C8
:106C8000F71FFF00EDCFFE00EF8FFF0004100100A3
:106C90001BF00100FCFFFD00BF0FFA0088FFF700AA
:106CA0008B2FFB00F7BF0500DC4017001B622C0098
:106CB00068733F0065C44A000448016841F001015F
:106CC00001600168C906FCD5704700BF3C00045054
:106CD0001F490A280A6822F006020A600A6822F0A0
:106CE00001020A604A6822F478424A604A6822F443
:106CF00080624A6010D0042814D010BB086840F0AD
:106D000002000860086840F001000860486840F42C
:106D100000604860486812E0086840F004000860BD
:106D2000086804E008680860086840F0010008602E
:106D3000486840F478404860486840F480604860A3
:106D4000704704A004A140F2A63200F09CBF00BF2F
:106D5000502808503000000072665F74785F706FD2
:106D60007765725F62617369635F636F6E6669679F
:106D700000000000B0B50C4605460B2805DB284690
:106D80002146BDE8B04000F0C1B8FFF703FCC0EBFE
:106D900000102B4901EB40000021102907D010F909
:106DA00011207F2A05D0AA4204DA0131F5E710212B
:106DB00000E00139CAB2EDB2B4FA84F410F812302E
:106DC00064095B1B18BF0123002A18BF012223405E
:106DD0001A40891AC9B200EB41004078B0BD00BF2B
:106DE000B0B50D460446FFF7D5FB012D15D1454939
:106DF00091F908100B2910DAC0EB0012104901EBD1
:106E000042030022102A10D003EB42056D78FF2DBB
:106E10000BD0A5420BD00132F4E7601C072C04D83C
:106E20000138FBD14648005D07E0002005E0C0EBDB
:106E3000001001EB400010F8120040B2B0BD00BFDE
:106E4000377D001C70B52F4D0446A87818B1204638
:106E5000FDF75EF9A872687800B32B4E95F90B2008
:106E6000315691421ADD01386870C0B23056FFF7D2
:106E700027FE68783056FFF79BFB01462046FDF75A
:106E800097FA687895F90B2000233156B0FA80F014
:106E900040099142D8BF0123184370BD012070BD45
:106EA00070B5184D0446A87818B12046FDF730F9A2
:106EB000A8726878062822D8134E95F90820315612
:106EC00091421CDA013068703056FFF7F9FD68789E
:106ED0003056FFF76DFB01462046FDF769FA6878EA
:106EE00095F908200023315691424FF00001A8BFC8
:106EF0000121062888BF012343EA010070BD01205B
:106F000070BD00BF00404120307D001C10B50C4B0F
:106F10000022082A04D09C5C844202DA0132F8E79D
:106F20000024201AB1FA81F118BF01204909084054
:106F3000D1B2002918BF01210840101AC0B210BDFB
:106F4000AC7D001C074900280A686FF39A420A606A
:106F50004FF0217208BF4FF02E720868104308608E
:106F6000704700BFE8400850F0B585B000201C46CF
:106F700002AF15460E46022B12A24FF00A01ADF8E1
:106F80001000CDE9020028BF02243846234600F055
:106F90007FFE14204FF4006331462A46002C0190F6
:106FA0000B4810F824000090384608BF4FF40073D7
:106FB00000F073FE044610B1204600F073FE204638
:106FC00005B0F0BD4B455F455654256400000000F8
:106FD000285005002DE9FF47044601209A469046B7
:106FE0000D460DF10E010DF10F028DF80E00244833
:106FF000036886209847DDF83090A8B100208DF80E
:107000000F00B9F1010F38D1012021462A4643462D
:10701000CDE900A01BA000F001FC29A021462A46D2
:1070200000F031FEBDE8FF879DF80F000028E8D092
:10703000204600F03CFE0421002211FA80F00021DD
:1070400020F0030707F1200083B241F2091000F09D
:107050001CFC07F11001064600F02EFE301D2146F3
:1070600080E82005022086F80190307006F11000BB
:1070700000F027FE304600F003FCBDE8FF8700BFAC
:10708000DC474120727769705F6173736572743A8F
:1070900066696C653A2025732C206C696E65202525
:1070A000642C20706172616D303D25642C706172BA
:1070B000616D313D25642C747970653D25640A004D
:1070C0004153534552540000BCB5194900200DF1FD
:1070D00006020023022810D051F820404CB194F849
:1070E000AA50972D05D3B4F9A83093FBF5F40123EA
:1070F00000E0002414540130ECE7BBB141F2091068
:1071000006210022A42300F0C0FB044630201A49C7
:107110004F222070BDF8060001F50E71A4F80100A1
:10712000E01C00F007FC204600F009FCBCBD00BFDD
:1071300098474120B0B50F4C0A2020700A2000F07B
:1071400098FD632804D80420042500F092FD2570E2
:107150000949C1F89402B0BD10B5064C207800F082
:1071600088FD28B1207800F084FD0349C1F894021D
:1071700010BD00BF30404120D8674120FEF718BE47
:10718000F8B5054600F05EFB164E0446294630462B
:1071900000F09CFD18B11348294600F09CFD002129
:1071A0008E48366876B172686B689F1A27F0704710
:1071B000874207D8934203D132892B89934201D960
:1071C0003146EEE7074819B12A4600F089FD04E090
:1071D000294600F08AFD00F08DFD2046BDE8F8400C
:1071E00000F03ABBC46A41202DE9FF47DFF8E09187
:1071F00001A8D9F8007000F082FDDFF8D88198F876
:107200002F00FF280AD000F0A3FC98F82F100822C6
:10721000C90002FA01F1084300F09FFCD7B1D9F888
:107220001400B8B17968019A8B1A511A23F070438F
:1072300021F07041B3F1006F88BF4B426649C27EB6
:10724000097811448B4205DC0021C9F81410016A49
:1072500001B18847002F00F0A38038897968A0F534
:107260008762B2F1FF3F05DC481E02F2712220F076
:107270007041F6E70198594CA2460B1A23F070436F
:10728000A34206D881422FD1BDF8080082420846A9
:107290002ADA484600F016FC09F11805014628468E
:1072A00000F0D5FA4C4C4E4ED9F80070002F77D034
:1072B000207879685346081A81190198421A22F0F9
:1072C0007042524510D821F07041814204D1398971
:1072D000BDF808208A4207D9484600F0F3FB014672
:1072E000284600F0B4FADFE73B496FF070420978B6
:1072F00051407A6811440A1A22F07042524508D867
:1073000021F0704188424BD13889BDF8081088427D
:1073100046D8484600F0D6FB0546D9F8140010B10F
:10732000016A01B18847E869C9F8145020B32020E8
:10733000294600F0E9FCE969284688472949DFF831
:10734000ACC000209422284C4D888E88761B96FB7A
:10735000F2F7C6B2B7420FDD16FB02462346775B53
:10736000FBB29CF800709F4204D0AB5B23F0FF039C
:107370003B44AB530130E7E7D9F8000080B1D9F8BE
:10738000141040684968401A6FF0784120F070404E
:10739000884205D31E4916A04FF4897200F04DFAB9
:1073A000D9F8180008B100F0B4FC00F0B7FC98F868
:1073B0002F00FF280AD000F0CBFB98F82F100822EE
:1073C000C90002FA01F1884300F0C7FBBDE8FF875E
:1073D000D86A412074464120786A4120FEFFFF07A9
:1073E000010000F0AC5741201A80412004404120A8
:1073F0004153530080B540B1817EFF2905D1044A35
:1074000000214FF4957300F09FFA002080BD00BF6B
:10741000137E001CF8B53F4D0446A87FFF2809D015
:1074200000F096FBA97F0822C90002FA01F1084387
:1074300000F093FB384E96F8020120B937483849DE
:10744000A22200F0FAF906EB04172001354A17F8DA
:107450000C1F105A69B100F03000302809D106EB3A
:1074600004114B685BB120018968042230589847A9
:107470000AE02A482A49C32200F0DFF928E0274819
:107480002749B22200F0D9F996F80001A04202BFC4
:10749000601C00F00F0086F800010020A97F387002
:1074A00096F80201FF29A0F1010086F8020111D02F
:1074B00000F04EFBA97FF022C9008A40904396F865
:1074C00002211201D2B202FA01F1084300F045FB99
:1074D00096F80201C0B248B101280AD196F800011D
:1074E000013000F00F0086F8010102E0402000F0BA
:1074F000C1FAA87FFF2808BFF8BD00F029FBA97FCB
:107500000822C90002FA01F18843BDE8F84000F002
:1075100024BB00BF74464120086B4120D47D001C71
:10752000237E001C0080412001A000F077B900BF3D
:10753000656E61626C65204C43505520322E2E00E2
:1075400048494448016100F5032141617321C1604C
:107550004FF480418160816841F4086181608168F5
:1075600041F410718160816841F00101816001681E
:107570008907FCD501214160816821F0010181600A
:10758000704700BF80B500F0CEFB324801213322A6
:107590004160816821F0010181602F4901612F491B
:1075A0004161C26044F210028260826842F4086263
:1075B0008260826842F410728260826842F0010246
:1075C000826002689207FCD501224260826822F044
:1075D00001028260224A026100F5012242614FF4F9
:1075E0000072C26044F210028260826842F4086253
:1075F0008260826842F410728260826842F0010206
:10760000826002689207FCD5012201F5C0514260F8
:10761000826822F001028260124A02614161732194
:10762000C16044F210018160816841F408618160A9
:10763000816841F410718160816841F001018160CD
:1076400001688907FCD501214160816821F00101B1
:10765000816080BD00100050E05641200028085095
:107660000C4D412038404120F0B53E483E4940F2A3
:10767000062501603D483E4901603E483E490160A3
:107680003E483F4901603F483F4901603F4840490B
:10769000016040484049016040484149016041481B
:1076A0004149016041484249016042484249016004
:1076B0004248434901604348D0E91414D0E91223F9
:1076C000D0F8807047F008072C4341F60805446560
:1076D000D0F894402C433C4DC0F89440D0F8A040E2
:1076E0002C43C0F8A040D0F89C4044F48074C0F80B
:1076F0009C40D0F88C4044F40074C0F88C40D0F822
:10770000A44044F00A04C0F8A4400468D0E9075635
:10771000C0F8807044F480040460D0F8844044F0E1
:107720000804C0F88440294C2C4346F48065C0E925
:107730000745274C2343D0F89840C364254B1A4390
:107740008264C26D42F00102C265234A2243C0F83E
:107750009820224A114301650121C1664FF48871C6
:107760004163F0BDC04441200F63001CC44441206C
:107770002963001CA44441202560001CA044412032
:10778000F55F001CAC4441209561001CA8444120D9
:107790002561001CB4444120FD61001CB04441201F
:1077A000D761001CBC444120E762001CB844412062
:1077B000BD62001CCC444120A964001CC844412087
:1077C000FD63001C0C56412008000400405048484E
:1077D00000C041180010404140006000803509A001
:1077E00070B50C4D0446A87818B12046FCF790FC03
:1077F000A872287B084E68703056FFF761F96878E8
:107800003056FEF7D5FE01462046BDE87040FCF735
:10781000CFBD00BF00404120307D001C4FF2357CC1
:10782000C0F2040C604743F2710CC0F2000C6047D8
:1078300048F6257CC0F2050C604744F6097CC0F28E
:10784000050C604740F2DD7CC0F2000C604745F655
:10785000D13CC0F2000C604740F2E57CC0F2000C65
:10786000604740F6FD1CC0F2000C604745F6B17C55
:10787000C0F2000C604746F25D0CC0F2000C60479D
:1078800043F20D5CC0F2010C604746F6E54CC0F2D5
:10789000010C60474BF6E12CC0F2020C604748F245
:1078A000691CC0F2000C604743F6B13CC0F2050C05
:1078B000604741F67D0CC0F2010C604746F6756CDE
:1078C000C0F2010C604745F2C16CC0F2000C604789
:1078D00045F2696CC0F2000C604749F6B11CC0F279
:1078E000020C604745F2053CC0F2000C604744F6CC
:1078F000D10CC0F2000C604746F6654CC0F2010C9A
:10790000604746F66D2CC0F2010C604746F2717C70
:10791000C0F2010C604747F2296CC0F2010C6047CD
:1079200047F2C17CC0F2010C604745F2416CC0F2E5
:10793000000C604740F6212CC0F2000C604746F670
:10794000555CC0F2010C604744F6457CC0F2050C62
:10795000604745F2653CC0F2040C604740F6AB2C32
:10796000C0F2000C60474DF6793CC0F2010C604754
:1079700044F2392CC0F2020C604749F20D4CC0F2BF
:10798000020C60474FF26D7CC0F2010C604748F278
:107990002D6CC0F2010C60474FF28D1CC0F2010C3F
:1079A00060474DF2954CC0F2010C60474DF2A50CBA
:1079B000C0F2010C60474EF6751CC0F2010C604726
:1079C00046F6C96CC0F2010C604749F27D2CC0F24A
:1079D000010C604749F2D92CC0F2010C604745F216
:1079E000994CC0F2000C604747F2D94CC0F2000C31
:1079F000604749F2E54CC0F2010C60474BF6211C90
:107A0000C0F2010C60474FF2C90CC0F2010C604794
:107A100046F6090CC0F2010C60474EF2293CC0F258
:107A2000010C60474BF6D91CC0F2010C604745F6CB
:107A3000894CC0F2000C60474AF6F12CC0F2010CF0
:107A4000604745F2914CC0F2000C604746F2292C89
:107A5000C0F2000C604740F61D2CC0F2020C6047DB
:107A600047F2814CC0F2000C604747F27D0CC0F237
:107A7000050C604745F6897CC0F2050C604749F269
:107A8000816CC0F2020C604749F2E96CC0F2020C52
:107A9000604744F68D7CC0F2050C60474BF6296CBC
:107AA000C0F2020C604745F6653CC0F2050C604729
:107AB00045F2593CC0F2020C604745F6C57CC0F265
:107AC000050C604745F6AD3CC0F2000C604745F23E
:107AD000C55CC0F2000C604749F6352CC0F2020CC0
:107AE00060474BF6B97CC0F2020C604740F2451C7F
:107AF000C0F2030C604740F26D1CC0F2030C6047FB
:107B000040F2791CC0F2030C604740F21D1CC0F229
:107B1000030C604740F2E91CC0F2030C604740F2DE
:107B2000256CC0F2030C60474EF6950CC0F2020CB7
:107B300060474CF6E53CC0F2020C604745F6011C7C
:107B4000C0F2030C604748F2454CC0F2030C60479A
:107B500045F20D7CC0F2000C604745F2297CC0F272
:107B6000000C604744F6E16CC0F2030C60474DF234
:107B70001D7CC0F2030C604747F24D1CC0F2030CA1
:107B8000604747F2A96CC0F2030C604744F2BD1C89
:107B9000C0F2040C604746F6F93CC0F2030C6047A3
:107BA00048F2911CC0F2030C604744F6A11CC0F2DD
:107BB000000C60474BF6794CC0F2030C604746F26C
:107BC000215CC0F2040C604748F2B96CC0F2040CAE
:107BD00060474DF2913CC0F2010C604748F6717C61
:107BE000C0F2040C604745F6A12CC0F2000C6047BF
:107BF00045F6453CC0F2000C60474EF6213CC0F211
:107C0000010C604745F6A96CC0F2000C604740F2D9
:107C1000FB1CC0F2050C60474FF24D2CC0F2010C6A
:107C200060474CF2990CC0F2040C60474DF6A13C41
:107C3000C0F2010C60474DF2A91CC0F2040C604771
:107C400047F2E12CC0F2410C604747F2893CC0F298
:107C5000410C604747F26D2CC0F2410C604747F27F
:107C6000192CC0F2410C604741F6614CC0F2000C87
:107C7000604741F6612CC0F2000C604740F6212CB1
:107C8000C0F2000C60474DF6E95CC0F2040C60479E
:107C900043F2AD2CC0F2050C604743F2DD6CC0F23C
:107CA000050C604743F6815CC0F2050C604740F666
:107CB0009D2CC0F2000C604740F66F2CC0F2000C07
:107CC000604740F6C52CC0F2000C604745F68D2C8D
:107CD000C0F2000C604745F6451CC0F2000C60473E
:107CE00045F6B52CC0F2000C604745F6554CC0F285
:107CF000000C604746F2C15CC0F2050C604746F2DA
:107D0000511CC0F2050C604747F2316CC0F2000C08
:107D1000604746F2CD0CC0F2050C604746F6817C08
:107D2000C0F2050C604749F2A10CC0F2050C604797
:107D30000003060A0D1013EC13EF15F217F61BF7EC
:107D40001DF81EF920FA22FB24FC27FD2BFE2FFF35
:107D500034003E7FFFEC11F013F317F718FA1BFD08
:107D60001E0025012B022F0337043D7FFF0000007A
:107D7000000000E610F011F912FE130115041A05B7
:107D80002006240728082E09340A3E7FFF00000041
:107D900000000000295D001CEF7D001C8200000037
:107DA000695D001CEA7D001CD10000000003060A8A
:107DB0000D0D101330000000347E001C995E001C75
:107DC000E37D001CD0000000255F001CF27D001C3C
:107DD0004A0000004153530072665F70617463682B
:107DE0002E6300424C423130420042313642004262
:107DF0004200424248484848006C635F70617463C7
:107E0000682E63006C645F61636C5F7061746368AB
:107E10002E63007363685F6172625F706174636890
:107E20002E63007363685F70726F675F7061746365
:107E3000682E6300423242373942006C6C645F70D6
:107E4000617463682E630000B55F001CF07D001C48
:047E500041000000ED
:0400000500000000F7
:00000001FF
